{
  "address": "0xda53e781d3c78cFE34bd1482705be563BE33Eb11",
  "abi": [
    {
      "inputs": [
        {
          "internalType": "address",
          "name": "_signer",
          "type": "address"
        },
        {
          "internalType": "string",
          "name": "_uri",
          "type": "string"
        },
        {
          "internalType": "uint256",
          "name": "_badgePerUserAmount",
          "type": "uint256"
        }
      ],
      "stateMutability": "nonpayable",
      "type": "constructor"
    },
    {
      "inputs": [],
      "name": "ApprovalCallerNotOwnerNorApproved",
      "type": "error"
    },
    {
      "inputs": [],
      "name": "ApprovalQueryForNonexistentToken",
      "type": "error"
    },
    {
      "inputs": [],
      "name": "BalanceQueryForZeroAddress",
      "type": "error"
    },
    {
      "inputs": [],
      "name": "MintERC2309QuantityExceedsLimit",
      "type": "error"
    },
    {
      "inputs": [],
      "name": "MintToZeroAddress",
      "type": "error"
    },
    {
      "inputs": [],
      "name": "MintZeroQuantity",
      "type": "error"
    },
    {
      "inputs": [],
      "name": "OwnerQueryForNonexistentToken",
      "type": "error"
    },
    {
      "inputs": [],
      "name": "OwnershipNotInitializedForExtraData",
      "type": "error"
    },
    {
      "inputs": [],
      "name": "SoulboundTokenCannotBeTransferred",
      "type": "error"
    },
    {
      "inputs": [],
      "name": "TransferCallerNotOwnerNorApproved",
      "type": "error"
    },
    {
      "inputs": [],
      "name": "TransferFromIncorrectOwner",
      "type": "error"
    },
    {
      "inputs": [],
      "name": "TransferToNonERC721ReceiverImplementer",
      "type": "error"
    },
    {
      "inputs": [],
      "name": "TransferToZeroAddress",
      "type": "error"
    },
    {
      "inputs": [],
      "name": "URIQueryForNonexistentToken",
      "type": "error"
    },
    {
      "anonymous": false,
      "inputs": [
        {
          "indexed": true,
          "internalType": "address",
          "name": "owner",
          "type": "address"
        },
        {
          "indexed": true,
          "internalType": "address",
          "name": "approved",
          "type": "address"
        },
        {
          "indexed": true,
          "internalType": "uint256",
          "name": "tokenId",
          "type": "uint256"
        }
      ],
      "name": "Approval",
      "type": "event"
    },
    {
      "anonymous": false,
      "inputs": [
        {
          "indexed": true,
          "internalType": "address",
          "name": "owner",
          "type": "address"
        },
        {
          "indexed": true,
          "internalType": "address",
          "name": "operator",
          "type": "address"
        },
        {
          "indexed": false,
          "internalType": "bool",
          "name": "approved",
          "type": "bool"
        }
      ],
      "name": "ApprovalForAll",
      "type": "event"
    },
    {
      "anonymous": false,
      "inputs": [
        {
          "indexed": true,
          "internalType": "uint256",
          "name": "fromTokenId",
          "type": "uint256"
        },
        {
          "indexed": false,
          "internalType": "uint256",
          "name": "toTokenId",
          "type": "uint256"
        },
        {
          "indexed": true,
          "internalType": "address",
          "name": "from",
          "type": "address"
        },
        {
          "indexed": true,
          "internalType": "address",
          "name": "to",
          "type": "address"
        }
      ],
      "name": "ConsecutiveTransfer",
      "type": "event"
    },
    {
      "anonymous": false,
      "inputs": [
        {
          "indexed": true,
          "internalType": "address",
          "name": "previousOwner",
          "type": "address"
        },
        {
          "indexed": true,
          "internalType": "address",
          "name": "newOwner",
          "type": "address"
        }
      ],
      "name": "OwnershipTransferred",
      "type": "event"
    },
    {
      "anonymous": false,
      "inputs": [
        {
          "indexed": true,
          "internalType": "address",
          "name": "from",
          "type": "address"
        },
        {
          "indexed": true,
          "internalType": "address",
          "name": "to",
          "type": "address"
        },
        {
          "indexed": true,
          "internalType": "uint256",
          "name": "tokenId",
          "type": "uint256"
        }
      ],
      "name": "Transfer",
      "type": "event"
    },
    {
      "inputs": [
        {
          "internalType": "address",
          "name": "to",
          "type": "address"
        },
        {
          "internalType": "uint256",
          "name": "tokenId",
          "type": "uint256"
        }
      ],
      "name": "approve",
      "outputs": [],
      "stateMutability": "payable",
      "type": "function"
    },
    {
      "inputs": [
        {
          "internalType": "address",
          "name": "owner",
          "type": "address"
        }
      ],
      "name": "balanceOf",
      "outputs": [
        {
          "internalType": "uint256",
          "name": "",
          "type": "uint256"
        }
      ],
      "stateMutability": "view",
      "type": "function"
    },
    {
      "inputs": [
        {
          "internalType": "uint256",
          "name": "tokenId",
          "type": "uint256"
        }
      ],
      "name": "burn",
      "outputs": [],
      "stateMutability": "nonpayable",
      "type": "function"
    },
    {
      "inputs": [
        {
          "internalType": "uint256",
          "name": "tokenId",
          "type": "uint256"
        }
      ],
      "name": "getApproved",
      "outputs": [
        {
          "internalType": "address",
          "name": "",
          "type": "address"
        }
      ],
      "stateMutability": "view",
      "type": "function"
    },
    {
      "inputs": [
        {
          "internalType": "address",
          "name": "owner",
          "type": "address"
        },
        {
          "internalType": "address",
          "name": "operator",
          "type": "address"
        }
      ],
      "name": "isApprovedForAll",
      "outputs": [
        {
          "internalType": "bool",
          "name": "",
          "type": "bool"
        }
      ],
      "stateMutability": "view",
      "type": "function"
    },
    {
      "inputs": [
        {
          "internalType": "uint256",
          "name": "_quantity",
          "type": "uint256"
        },
        {
          "internalType": "string",
          "name": "_mintHash",
          "type": "string"
        },
        {
          "internalType": "bytes",
          "name": "_signature",
          "type": "bytes"
        }
      ],
      "name": "mint",
      "outputs": [],
      "stateMutability": "nonpayable",
      "type": "function"
    },
    {
      "inputs": [],
      "name": "name",
      "outputs": [
        {
          "internalType": "string",
          "name": "",
          "type": "string"
        }
      ],
      "stateMutability": "view",
      "type": "function"
    },
    {
      "inputs": [],
      "name": "owner",
      "outputs": [
        {
          "internalType": "address",
          "name": "",
          "type": "address"
        }
      ],
      "stateMutability": "view",
      "type": "function"
    },
    {
      "inputs": [
        {
          "internalType": "uint256",
          "name": "tokenId",
          "type": "uint256"
        }
      ],
      "name": "ownerOf",
      "outputs": [
        {
          "internalType": "address",
          "name": "",
          "type": "address"
        }
      ],
      "stateMutability": "view",
      "type": "function"
    },
    {
      "inputs": [],
      "name": "renounceOwnership",
      "outputs": [],
      "stateMutability": "nonpayable",
      "type": "function"
    },
    {
      "inputs": [
        {
          "internalType": "address",
          "name": "from",
          "type": "address"
        },
        {
          "internalType": "address",
          "name": "to",
          "type": "address"
        },
        {
          "internalType": "uint256",
          "name": "tokenId",
          "type": "uint256"
        }
      ],
      "name": "safeTransferFrom",
      "outputs": [],
      "stateMutability": "payable",
      "type": "function"
    },
    {
      "inputs": [
        {
          "internalType": "address",
          "name": "from",
          "type": "address"
        },
        {
          "internalType": "address",
          "name": "to",
          "type": "address"
        },
        {
          "internalType": "uint256",
          "name": "tokenId",
          "type": "uint256"
        },
        {
          "internalType": "bytes",
          "name": "_data",
          "type": "bytes"
        }
      ],
      "name": "safeTransferFrom",
      "outputs": [],
      "stateMutability": "payable",
      "type": "function"
    },
    {
      "inputs": [
        {
          "internalType": "address",
          "name": "operator",
          "type": "address"
        },
        {
          "internalType": "bool",
          "name": "approved",
          "type": "bool"
        }
      ],
      "name": "setApprovalForAll",
      "outputs": [],
      "stateMutability": "nonpayable",
      "type": "function"
    },
    {
      "inputs": [
        {
          "internalType": "uint256",
          "name": "_badgePerUserAmount",
          "type": "uint256"
        }
      ],
      "name": "setBadgePerUserAmount",
      "outputs": [],
      "stateMutability": "nonpayable",
      "type": "function"
    },
    {
      "inputs": [
        {
          "internalType": "address",
          "name": "_signer",
          "type": "address"
        }
      ],
      "name": "setSigner",
      "outputs": [],
      "stateMutability": "nonpayable",
      "type": "function"
    },
    {
      "inputs": [
        {
          "internalType": "string",
          "name": "_uri",
          "type": "string"
        }
      ],
      "name": "setUri",
      "outputs": [],
      "stateMutability": "nonpayable",
      "type": "function"
    },
    {
      "inputs": [
        {
          "internalType": "bytes4",
          "name": "interfaceId",
          "type": "bytes4"
        }
      ],
      "name": "supportsInterface",
      "outputs": [
        {
          "internalType": "bool",
          "name": "",
          "type": "bool"
        }
      ],
      "stateMutability": "view",
      "type": "function"
    },
    {
      "inputs": [],
      "name": "symbol",
      "outputs": [
        {
          "internalType": "string",
          "name": "",
          "type": "string"
        }
      ],
      "stateMutability": "view",
      "type": "function"
    },
    {
      "inputs": [
        {
          "internalType": "uint256",
          "name": "tokenId",
          "type": "uint256"
        }
      ],
      "name": "tokenURI",
      "outputs": [
        {
          "internalType": "string",
          "name": "",
          "type": "string"
        }
      ],
      "stateMutability": "view",
      "type": "function"
    },
    {
      "inputs": [],
      "name": "totalSupply",
      "outputs": [
        {
          "internalType": "uint256",
          "name": "",
          "type": "uint256"
        }
      ],
      "stateMutability": "view",
      "type": "function"
    },
    {
      "inputs": [
        {
          "internalType": "address",
          "name": "from",
          "type": "address"
        },
        {
          "internalType": "address",
          "name": "to",
          "type": "address"
        },
        {
          "internalType": "uint256",
          "name": "tokenId",
          "type": "uint256"
        }
      ],
      "name": "transferFrom",
      "outputs": [],
      "stateMutability": "payable",
      "type": "function"
    },
    {
      "inputs": [
        {
          "internalType": "address",
          "name": "newOwner",
          "type": "address"
        }
      ],
      "name": "transferOwnership",
      "outputs": [],
      "stateMutability": "nonpayable",
      "type": "function"
    },
    {
      "inputs": [],
      "name": "uri",
      "outputs": [
        {
          "internalType": "string",
          "name": "",
          "type": "string"
        }
      ],
      "stateMutability": "view",
      "type": "function"
    }
  ],
  "transactionHash": "0xe05c587e1bfcfbda31102ea44b15c772eb99f4606840081f617ee14fcf3ece67",
  "args": [
    "0xE6520dC955DD9388C221ca3fA8704dCF6a78AAf6",
    "ipfs://",
    2
  ],
  "numDeployments": 1,
  "solcInputHash": "854f06701fdd9f874cf9298800b05eae",
  "bytecode": "0x60806040523480156200001157600080fd5b506040516200344e3803806200344e833981810160405281019062000037919062000537565b6040518060400160405280600e81526020017f496e7665737479436c75624b59430000000000000000000000000000000000008152506040518060400160405280600781526020017f494e56434b5943000000000000000000000000000000000000000000000000008152508160029080519060200190620000bb9291906200024a565b508060039080519060200190620000d49291906200024a565b50620000e56200017760201b60201c565b60008190555050506200010d620001016200017c60201b60201c565b6200018460201b60201c565b82600960006101000a81548173ffffffffffffffffffffffffffffffffffffffff021916908373ffffffffffffffffffffffffffffffffffffffff16021790555081600a9080519060200190620001669291906200024a565b5080600c8190555050505062000617565b600090565b600033905090565b6000600860009054906101000a900473ffffffffffffffffffffffffffffffffffffffff16905081600860006101000a81548173ffffffffffffffffffffffffffffffffffffffff021916908373ffffffffffffffffffffffffffffffffffffffff1602179055508173ffffffffffffffffffffffffffffffffffffffff168173ffffffffffffffffffffffffffffffffffffffff167f8be0079c531659141344cd1fd0a4f28419497f9722a3daafe3b4186f6b6457e060405160405180910390a35050565b8280546200025890620005e1565b90600052602060002090601f0160209004810192826200027c5760008555620002c8565b82601f106200029757805160ff1916838001178555620002c8565b82800160010185558215620002c8579182015b82811115620002c7578251825591602001919060010190620002aa565b5b509050620002d79190620002db565b5090565b5b80821115620002f6576000816000905550600101620002dc565b5090565b6000604051905090565b600080fd5b600080fd5b600073ffffffffffffffffffffffffffffffffffffffff82169050919050565b60006200033b826200030e565b9050919050565b6200034d816200032e565b81146200035957600080fd5b50565b6000815190506200036d8162000342565b92915050565b600080fd5b600080fd5b6000601f19601f8301169050919050565b7f4e487b7100000000000000000000000000000000000000000000000000000000600052604160045260246000fd5b620003c8826200037d565b810181811067ffffffffffffffff82111715620003ea57620003e96200038e565b5b80604052505050565b6000620003ff620002fa565b90506200040d8282620003bd565b919050565b600067ffffffffffffffff82111562000430576200042f6200038e565b5b6200043b826200037d565b9050602081019050919050565b60005b83811015620004685780820151818401526020810190506200044b565b8381111562000478576000848401525b50505050565b6000620004956200048f8462000412565b620003f3565b905082815260208101848484011115620004b457620004b362000378565b5b620004c184828562000448565b509392505050565b600082601f830112620004e157620004e062000373565b5b8151620004f38482602086016200047e565b91505092915050565b6000819050919050565b6200051181620004fc565b81146200051d57600080fd5b50565b600081519050620005318162000506565b92915050565b60008060006060848603121562000553576200055262000304565b5b600062000563868287016200035c565b935050602084015167ffffffffffffffff81111562000587576200058662000309565b5b6200059586828701620004c9565b9250506040620005a88682870162000520565b9150509250925092565b7f4e487b7100000000000000000000000000000000000000000000000000000000600052602260045260246000fd5b60006002820490506001821680620005fa57607f821691505b60208210811415620006115762000610620005b2565b5b50919050565b612e2780620006276000396000f3fe6080604052600436106101405760003560e01c8063715018a6116100b6578063a22cb4651161006f578063a22cb4651461041d578063b88d4fde14610446578063c87b56dd14610462578063e985e9c51461049f578063eac989f8146104dc578063f2fde38b1461050757610140565b8063715018a6146103355780637328a2e61461034c578063785cc997146103755780638da5cb5b1461039e57806395d89b41146103c95780639b642de1146103f457610140565b806323b872dd1161010857806323b872dd1461023157806342842e0e1461024d57806342966c68146102695780636352211e146102925780636c19e783146102cf57806370a08231146102f857610140565b806301ffc9a71461014557806306fdde0314610182578063081812fc146101ad578063095ea7b3146101ea57806318160ddd14610206575b600080fd5b34801561015157600080fd5b5061016c600480360381019061016791906120f2565b610530565b604051610179919061213a565b60405180910390f35b34801561018e57600080fd5b506101976105c2565b6040516101a491906121ee565b60405180910390f35b3480156101b957600080fd5b506101d460048036038101906101cf9190612246565b610654565b6040516101e191906122b4565b60405180910390f35b61020460048036038101906101ff91906122fb565b6106d3565b005b34801561021257600080fd5b5061021b610817565b604051610228919061234a565b60405180910390f35b61024b60048036038101906102469190612365565b61082e565b005b61026760048036038101906102629190612365565b610b53565b005b34801561027557600080fd5b50610290600480360381019061028b9190612246565b610b73565b005b34801561029e57600080fd5b506102b960048036038101906102b49190612246565b610b81565b6040516102c691906122b4565b60405180910390f35b3480156102db57600080fd5b506102f660048036038101906102f191906123b8565b610b93565b005b34801561030457600080fd5b5061031f600480360381019061031a91906123b8565b610bdf565b60405161032c919061234a565b60405180910390f35b34801561034157600080fd5b5061034a610c98565b005b34801561035857600080fd5b50610373600480360381019061036e9190612246565b610cac565b005b34801561038157600080fd5b5061039c6004803603810190610397919061257a565b610cbe565b005b3480156103aa57600080fd5b506103b3610e75565b6040516103c091906122b4565b60405180910390f35b3480156103d557600080fd5b506103de610e9f565b6040516103eb91906121ee565b60405180910390f35b34801561040057600080fd5b5061041b6004803603810190610416919061260a565b610f31565b005b34801561042957600080fd5b50610444600480360381019061043f919061267f565b610f53565b005b610460600480360381019061045b9190612760565b61105e565b005b34801561046e57600080fd5b5061048960048036038101906104849190612246565b6110d1565b60405161049691906121ee565b60405180910390f35b3480156104ab57600080fd5b506104c660048036038101906104c191906127e3565b611165565b6040516104d3919061213a565b60405180910390f35b3480156104e857600080fd5b506104f16111f9565b6040516104fe91906121ee565b60405180910390f35b34801561051357600080fd5b5061052e600480360381019061052991906123b8565b611287565b005b60006301ffc9a760e01b827bffffffffffffffffffffffffffffffffffffffffffffffffffffffff1916148061058b57506380ac58cd60e01b827bffffffffffffffffffffffffffffffffffffffffffffffffffffffff1916145b806105bb5750635b5e139f60e01b827bffffffffffffffffffffffffffffffffffffffffffffffffffffffff1916145b9050919050565b6060600280546105d190612852565b80601f01602080910402602001604051908101604052809291908181526020018280546105fd90612852565b801561064a5780601f1061061f5761010080835404028352916020019161064a565b820191906000526020600020905b81548152906001019060200180831161062d57829003601f168201915b5050505050905090565b600061065f8261130b565b610695576040517fcf4700e400000000000000000000000000000000000000000000000000000000815260040160405180910390fd5b6006600083815260200190815260200160002060000160009054906101000a900473ffffffffffffffffffffffffffffffffffffffff169050919050565b60006106de82610b81565b90508073ffffffffffffffffffffffffffffffffffffffff166106ff61136a565b73ffffffffffffffffffffffffffffffffffffffff16146107625761072b8161072661136a565b611165565b610761576040517fcfb3b94200000000000000000000000000000000000000000000000000000000815260040160405180910390fd5b5b826006600084815260200190815260200160002060000160006101000a81548173ffffffffffffffffffffffffffffffffffffffff021916908373ffffffffffffffffffffffffffffffffffffffff160217905550818373ffffffffffffffffffffffffffffffffffffffff168273ffffffffffffffffffffffffffffffffffffffff167f8c5be1e5ebec7d5bd14f71427d1e84f3dd0314c0f7b2291e5b200ac8c7c3b92560405160405180910390a4505050565b6000610821611372565b6001546000540303905090565b600061083982611377565b90508373ffffffffffffffffffffffffffffffffffffffff168173ffffffffffffffffffffffffffffffffffffffff16146108a0576040517fa114810000000000000000000000000000000000000000000000000000000000815260040160405180910390fd5b6000806108ac84611445565b915091506108c281876108bd61136a565b61146c565b61090e576108d7866108d261136a565b611165565b61090d576040517f59c896be00000000000000000000000000000000000000000000000000000000815260040160405180910390fd5b5b600073ffffffffffffffffffffffffffffffffffffffff168573ffffffffffffffffffffffffffffffffffffffff161415610975576040517fea553b3400000000000000000000000000000000000000000000000000000000815260040160405180910390fd5b61098286868660016114b0565b801561098d57600082555b600560008773ffffffffffffffffffffffffffffffffffffffff1673ffffffffffffffffffffffffffffffffffffffff168152602001908152602001600020600081546001900391905081905550600560008673ffffffffffffffffffffffffffffffffffffffff1673ffffffffffffffffffffffffffffffffffffffff1681526020019081526020016000206000815460010191905081905550610a5b85610a37888887611551565b7c020000000000000000000000000000000000000000000000000000000017611579565b600460008681526020019081526020016000208190555060007c020000000000000000000000000000000000000000000000000000000084161415610ae3576000600185019050600060046000838152602001908152602001600020541415610ae1576000548114610ae0578360046000838152602001908152602001600020819055505b5b505b838573ffffffffffffffffffffffffffffffffffffffff168773ffffffffffffffffffffffffffffffffffffffff167fddf252ad1be2c89b69c2b068fc378daa952ba7f163c4a11628f55a4df523b3ef60405160405180910390a4610b4b86868660016115a4565b505050505050565b610b6e8383836040518060200160405280600081525061105e565b505050565b610b7e8160016115aa565b50565b6000610b8c82611377565b9050919050565b610b9b6117fe565b80600960006101000a81548173ffffffffffffffffffffffffffffffffffffffff021916908373ffffffffffffffffffffffffffffffffffffffff16021790555050565b60008073ffffffffffffffffffffffffffffffffffffffff168273ffffffffffffffffffffffffffffffffffffffff161415610c47576040517f8f4eb60400000000000000000000000000000000000000000000000000000000815260040160405180910390fd5b67ffffffffffffffff600560008473ffffffffffffffffffffffffffffffffffffffff1673ffffffffffffffffffffffffffffffffffffffff16815260200190815260200160002054169050919050565b610ca06117fe565b610caa600061187c565b565b610cb46117fe565b80600c8190555050565b6000610cc933610bdf565b14610d09576040517f08c379a0000000000000000000000000000000000000000000000000000000008152600401610d00906128d0565b60405180910390fd5b600c54600b84604051610d1c919061292c565b90815260200160405180910390208054905010610d6e576040517f08c379a0000000000000000000000000000000000000000000000000000000008152600401610d659061298f565b60405180910390fd5b610dc5610d7b3385611942565b83838080601f016020809104026020016040519081016040528093929190818152602001838380828437600081840152601f19601f82011690508083019250505050505050611975565b610e04576040517f08c379a0000000000000000000000000000000000000000000000000000000008152600401610dfb906129fb565b60405180910390fd5b600b83604051610e14919061292c565b9081526020016040518091039020600190806001815401808255809150506001900390600052602060002090602091828204019190069091909190916101000a81548160ff021916908315150217905550610e6f33856119ac565b50505050565b6000600860009054906101000a900473ffffffffffffffffffffffffffffffffffffffff16905090565b606060038054610eae90612852565b80601f0160208091040260200160405190810160405280929190818152602001828054610eda90612852565b8015610f275780601f10610efc57610100808354040283529160200191610f27565b820191906000526020600020905b815481529060010190602001808311610f0a57829003601f168201915b5050505050905090565b610f396117fe565b80600a9080519060200190610f4f929190611fe3565b5050565b8060076000610f6061136a565b73ffffffffffffffffffffffffffffffffffffffff1673ffffffffffffffffffffffffffffffffffffffff16815260200190815260200160002060008473ffffffffffffffffffffffffffffffffffffffff1673ffffffffffffffffffffffffffffffffffffffff16815260200190815260200160002060006101000a81548160ff0219169083151502179055508173ffffffffffffffffffffffffffffffffffffffff1661100d61136a565b73ffffffffffffffffffffffffffffffffffffffff167f17307eab39ab6107e8899845ad3d59bd9653f200f220920489ca2b5937696c3183604051611052919061213a565b60405180910390a35050565b61106984848461082e565b60008373ffffffffffffffffffffffffffffffffffffffff163b146110cb5761109484848484611b69565b6110ca576040517fd1a57ed600000000000000000000000000000000000000000000000000000000815260040160405180910390fd5b5b50505050565b6060600a80546110e090612852565b80601f016020809104026020016040519081016040528092919081815260200182805461110c90612852565b80156111595780601f1061112e57610100808354040283529160200191611159565b820191906000526020600020905b81548152906001019060200180831161113c57829003601f168201915b50505050509050919050565b6000600760008473ffffffffffffffffffffffffffffffffffffffff1673ffffffffffffffffffffffffffffffffffffffff16815260200190815260200160002060008373ffffffffffffffffffffffffffffffffffffffff1673ffffffffffffffffffffffffffffffffffffffff16815260200190815260200160002060009054906101000a900460ff16905092915050565b600a805461120690612852565b80601f016020809104026020016040519081016040528092919081815260200182805461123290612852565b801561127f5780601f106112545761010080835404028352916020019161127f565b820191906000526020600020905b81548152906001019060200180831161126257829003601f168201915b505050505081565b61128f6117fe565b600073ffffffffffffffffffffffffffffffffffffffff168173ffffffffffffffffffffffffffffffffffffffff1614156112ff576040517f08c379a00000000000000000000000000000000000000000000000000000000081526004016112f690612a8d565b60405180910390fd5b6113088161187c565b50565b600081611316611372565b11158015611325575060005482105b8015611363575060007c0100000000000000000000000000000000000000000000000000000000600460008581526020019081526020016000205416145b9050919050565b600033905090565b600090565b60008082905080611386611372565b1161140e5760005481101561140d5760006004600083815260200190815260200160002054905060007c01000000000000000000000000000000000000000000000000000000008216141561140b575b60008114156114015760046000836001900393508381526020019081526020016000205490506113d6565b8092505050611440565b505b5b6040517fdf2d9b4200000000000000000000000000000000000000000000000000000000815260040160405180910390fd5b919050565b60008060006006600085815260200190815260200160002090508092508254915050915091565b600073ffffffffffffffffffffffffffffffffffffffff8316925073ffffffffffffffffffffffffffffffffffffffff821691508382148383141790509392505050565b600073ffffffffffffffffffffffffffffffffffffffff168473ffffffffffffffffffffffffffffffffffffffff161461154b57600073ffffffffffffffffffffffffffffffffffffffff168373ffffffffffffffffffffffffffffffffffffffff161461154a576040517f0701eeb900000000000000000000000000000000000000000000000000000000815260040160405180910390fd5b5b50505050565b60008060e883901c905060e8611568868684611cba565b62ffffff16901b9150509392505050565b600073ffffffffffffffffffffffffffffffffffffffff83169250814260a01b178317905092915050565b50505050565b60006115b583611377565b905060008190506000806115c886611445565b915091508415611631576115e481846115df61136a565b61146c565b611630576115f9836115f461136a565b611165565b61162f576040517f59c896be00000000000000000000000000000000000000000000000000000000815260040160405180910390fd5b5b5b61163f8360008860016114b0565b801561164a57600082555b600160806001901b03600560008573ffffffffffffffffffffffffffffffffffffffff1673ffffffffffffffffffffffffffffffffffffffff168152602001908152602001600020600082825401925050819055506116f2836116af85600088611551565b7c02000000000000000000000000000000000000000000000000000000007c01000000000000000000000000000000000000000000000000000000001717611579565b600460008881526020019081526020016000208190555060007c02000000000000000000000000000000000000000000000000000000008516141561177a576000600187019050600060046000838152602001908152602001600020541415611778576000548114611777578460046000838152602001908152602001600020819055505b5b505b85600073ffffffffffffffffffffffffffffffffffffffff168473ffffffffffffffffffffffffffffffffffffffff167fddf252ad1be2c89b69c2b068fc378daa952ba7f163c4a11628f55a4df523b3ef60405160405180910390a46117e48360008860016115a4565b600160008154809291906001019190505550505050505050565b611806611cc3565b73ffffffffffffffffffffffffffffffffffffffff16611824610e75565b73ffffffffffffffffffffffffffffffffffffffff161461187a576040517f08c379a000000000000000000000000000000000000000000000000000000000815260040161187190612af9565b60405180910390fd5b565b6000600860009054906101000a900473ffffffffffffffffffffffffffffffffffffffff16905081600860006101000a81548173ffffffffffffffffffffffffffffffffffffffff021916908373ffffffffffffffffffffffffffffffffffffffff1602179055508173ffffffffffffffffffffffffffffffffffffffff168173ffffffffffffffffffffffffffffffffffffffff167f8be0079c531659141344cd1fd0a4f28419497f9722a3daafe3b4186f6b6457e060405160405180910390a35050565b60008282604051602001611957929190612b61565b60405160208183030381529060405280519060200120905092915050565b60006119a4600960009054906101000a900473ffffffffffffffffffffffffffffffffffffffff168484611ccb565b905092915050565b60008054905060008214156119ed576040517fb562e8dd00000000000000000000000000000000000000000000000000000000815260040160405180910390fd5b6119fa60008483856114b0565b600160406001901b178202600560008573ffffffffffffffffffffffffffffffffffffffff1673ffffffffffffffffffffffffffffffffffffffff16815260200190815260200160002060008282540192505081905550611a7183611a626000866000611551565b611a6b85611d5a565b17611579565b6004600083815260200190815260200160002081905550600080838301905073ffffffffffffffffffffffffffffffffffffffff85169150828260007fddf252ad1be2c89b69c2b068fc378daa952ba7f163c4a11628f55a4df523b3ef600080a4600183015b818114611b1257808360007fddf252ad1be2c89b69c2b068fc378daa952ba7f163c4a11628f55a4df523b3ef600080a4600181019050611ad7565b506000821415611b4e576040517f2e07630000000000000000000000000000000000000000000000000000000000815260040160405180910390fd5b806000819055505050611b6460008483856115a4565b505050565b60008373ffffffffffffffffffffffffffffffffffffffff1663150b7a02611b8f61136a565b8786866040518563ffffffff1660e01b8152600401611bb19493929190612bde565b6020604051808303816000875af1925050508015611bed57506040513d601f19601f82011682018060405250810190611bea9190612c3f565b60015b611c67573d8060008114611c1d576040519150601f19603f3d011682016040523d82523d6000602084013e611c22565b606091505b50600081511415611c5f576040517fd1a57ed600000000000000000000000000000000000000000000000000000000815260040160405180910390fd5b805181602001fd5b63150b7a0260e01b7bffffffffffffffffffffffffffffffffffffffffffffffffffffffff1916817bffffffffffffffffffffffffffffffffffffffffffffffffffffffff191614915050949350505050565b60009392505050565b600033905090565b6000806000611cda8585611d6a565b9150915060006004811115611cf257611cf1612c6c565b5b816004811115611d0557611d04612c6c565b5b148015611d3d57508573ffffffffffffffffffffffffffffffffffffffff168273ffffffffffffffffffffffffffffffffffffffff16145b80611d4f5750611d4e868686611dbc565b5b925050509392505050565b60006001821460e11b9050919050565b600080604183511415611dac5760008060006020860151925060408601519150606086015160001a9050611da087828585611f00565b94509450505050611db5565b60006002915091505b9250929050565b60008060008573ffffffffffffffffffffffffffffffffffffffff16631626ba7e60e01b8686604051602401611df3929190612cb4565b604051602081830303815290604052907bffffffffffffffffffffffffffffffffffffffffffffffffffffffff19166020820180517bffffffffffffffffffffffffffffffffffffffffffffffffffffffff8381831617835250505050604051611e5d9190612d20565b600060405180830381855afa9150503d8060008114611e98576040519150601f19603f3d011682016040523d82523d6000602084013e611e9d565b606091505b5091509150818015611eb157506020815110155b8015611ef55750631626ba7e60e01b7bffffffffffffffffffffffffffffffffffffffffffffffffffffffff191681806020019051810190611ef39190612d63565b145b925050509392505050565b6000807f7fffffffffffffffffffffffffffffff5d576e7357a4501ddfe92f46681b20a08360001c1115611f3b576000600391509150611fda565b600060018787878760405160008152602001604052604051611f609493929190612dac565b6020604051602081039080840390855afa158015611f82573d6000803e3d6000fd5b505050602060405103519050600073ffffffffffffffffffffffffffffffffffffffff168173ffffffffffffffffffffffffffffffffffffffff161415611fd157600060019250925050611fda565b80600092509250505b94509492505050565b828054611fef90612852565b90600052602060002090601f0160209004810192826120115760008555612058565b82601f1061202a57805160ff1916838001178555612058565b82800160010185558215612058579182015b8281111561205757825182559160200191906001019061203c565b5b5090506120659190612069565b5090565b5b8082111561208257600081600090555060010161206a565b5090565b6000604051905090565b600080fd5b600080fd5b60007fffffffff0000000000000000000000000000000000000000000000000000000082169050919050565b6120cf8161209a565b81146120da57600080fd5b50565b6000813590506120ec816120c6565b92915050565b60006020828403121561210857612107612090565b5b6000612116848285016120dd565b91505092915050565b60008115159050919050565b6121348161211f565b82525050565b600060208201905061214f600083018461212b565b92915050565b600081519050919050565b600082825260208201905092915050565b60005b8381101561218f578082015181840152602081019050612174565b8381111561219e576000848401525b50505050565b6000601f19601f8301169050919050565b60006121c082612155565b6121ca8185612160565b93506121da818560208601612171565b6121e3816121a4565b840191505092915050565b6000602082019050818103600083015261220881846121b5565b905092915050565b6000819050919050565b61222381612210565b811461222e57600080fd5b50565b6000813590506122408161221a565b92915050565b60006020828403121561225c5761225b612090565b5b600061226a84828501612231565b91505092915050565b600073ffffffffffffffffffffffffffffffffffffffff82169050919050565b600061229e82612273565b9050919050565b6122ae81612293565b82525050565b60006020820190506122c960008301846122a5565b92915050565b6122d881612293565b81146122e357600080fd5b50565b6000813590506122f5816122cf565b92915050565b6000806040838503121561231257612311612090565b5b6000612320858286016122e6565b925050602061233185828601612231565b9150509250929050565b61234481612210565b82525050565b600060208201905061235f600083018461233b565b92915050565b60008060006060848603121561237e5761237d612090565b5b600061238c868287016122e6565b935050602061239d868287016122e6565b92505060406123ae86828701612231565b9150509250925092565b6000602082840312156123ce576123cd612090565b5b60006123dc848285016122e6565b91505092915050565b600080fd5b600080fd5b7f4e487b7100000000000000000000000000000000000000000000000000000000600052604160045260246000fd5b612427826121a4565b810181811067ffffffffffffffff82111715612446576124456123ef565b5b80604052505050565b6000612459612086565b9050612465828261241e565b919050565b600067ffffffffffffffff821115612485576124846123ef565b5b61248e826121a4565b9050602081019050919050565b82818337600083830152505050565b60006124bd6124b88461246a565b61244f565b9050828152602081018484840111156124d9576124d86123ea565b5b6124e484828561249b565b509392505050565b600082601f830112612501576125006123e5565b5b81356125118482602086016124aa565b91505092915050565b600080fd5b600080fd5b60008083601f84011261253a576125396123e5565b5b8235905067ffffffffffffffff8111156125575761255661251a565b5b6020830191508360018202830111156125735761257261251f565b5b9250929050565b6000806000806060858703121561259457612593612090565b5b60006125a287828801612231565b945050602085013567ffffffffffffffff8111156125c3576125c2612095565b5b6125cf878288016124ec565b935050604085013567ffffffffffffffff8111156125f0576125ef612095565b5b6125fc87828801612524565b925092505092959194509250565b6000602082840312156126205761261f612090565b5b600082013567ffffffffffffffff81111561263e5761263d612095565b5b61264a848285016124ec565b91505092915050565b61265c8161211f565b811461266757600080fd5b50565b60008135905061267981612653565b92915050565b6000806040838503121561269657612695612090565b5b60006126a4858286016122e6565b92505060206126b58582860161266a565b9150509250929050565b600067ffffffffffffffff8211156126da576126d96123ef565b5b6126e3826121a4565b9050602081019050919050565b60006127036126fe846126bf565b61244f565b90508281526020810184848401111561271f5761271e6123ea565b5b61272a84828561249b565b509392505050565b600082601f830112612747576127466123e5565b5b81356127578482602086016126f0565b91505092915050565b6000806000806080858703121561277a57612779612090565b5b6000612788878288016122e6565b9450506020612799878288016122e6565b93505060406127aa87828801612231565b925050606085013567ffffffffffffffff8111156127cb576127ca612095565b5b6127d787828801612732565b91505092959194509250565b600080604083850312156127fa576127f9612090565b5b6000612808858286016122e6565b9250506020612819858286016122e6565b9150509250929050565b7f4e487b7100000000000000000000000000000000000000000000000000000000600052602260045260246000fd5b6000600282049050600182168061286a57607f821691505b6020821081141561287e5761287d612823565b5b50919050565b7f416c7265616479206d696e746564000000000000000000000000000000000000600082015250565b60006128ba600e83612160565b91506128c582612884565b602082019050919050565b600060208201905081810360008301526128e9816128ad565b9050919050565b600081905092915050565b600061290682612155565b61291081856128f0565b9350612920818560208601612171565b80840191505092915050565b600061293882846128fb565b915081905092915050565b7f4d696e74206861736820616c7265616479206578697374656e74000000000000600082015250565b6000612979601a83612160565b915061298482612943565b602082019050919050565b600060208201905081810360008301526129a88161296c565b9050919050565b7f496e76616c6964207369676e6174757265000000000000000000000000000000600082015250565b60006129e5601183612160565b91506129f0826129af565b602082019050919050565b60006020820190508181036000830152612a14816129d8565b9050919050565b7f4f776e61626c653a206e6577206f776e657220697320746865207a65726f206160008201527f6464726573730000000000000000000000000000000000000000000000000000602082015250565b6000612a77602683612160565b9150612a8282612a1b565b604082019050919050565b60006020820190508181036000830152612aa681612a6a565b9050919050565b7f4f776e61626c653a2063616c6c6572206973206e6f7420746865206f776e6572600082015250565b6000612ae3602083612160565b9150612aee82612aad565b602082019050919050565b60006020820190508181036000830152612b1281612ad6565b9050919050565b60008160601b9050919050565b6000612b3182612b19565b9050919050565b6000612b4382612b26565b9050919050565b612b5b612b5682612293565b612b38565b82525050565b6000612b6d8285612b4a565b601482019150612b7d82846128fb565b91508190509392505050565b600081519050919050565b600082825260208201905092915050565b6000612bb082612b89565b612bba8185612b94565b9350612bca818560208601612171565b612bd3816121a4565b840191505092915050565b6000608082019050612bf360008301876122a5565b612c0060208301866122a5565b612c0d604083018561233b565b8181036060830152612c1f8184612ba5565b905095945050505050565b600081519050612c39816120c6565b92915050565b600060208284031215612c5557612c54612090565b5b6000612c6384828501612c2a565b91505092915050565b7f4e487b7100000000000000000000000000000000000000000000000000000000600052602160045260246000fd5b6000819050919050565b612cae81612c9b565b82525050565b6000604082019050612cc96000830185612ca5565b8181036020830152612cdb8184612ba5565b90509392505050565b600081905092915050565b6000612cfa82612b89565b612d048185612ce4565b9350612d14818560208601612171565b80840191505092915050565b6000612d2c8284612cef565b915081905092915050565b612d4081612c9b565b8114612d4b57600080fd5b50565b600081519050612d5d81612d37565b92915050565b600060208284031215612d7957612d78612090565b5b6000612d8784828501612d4e565b91505092915050565b600060ff82169050919050565b612da681612d90565b82525050565b6000608082019050612dc16000830187612ca5565b612dce6020830186612d9d565b612ddb6040830185612ca5565b612de86060830184612ca5565b9594505050505056fea26469706673582212204709c6c64f30c461933aa28ddc00b6d6c01d21d7bc89b7400d864667634ca8d364736f6c634300080a0033",
  "devdoc": {
    "kind": "dev",
    "methods": {
      "approve(address,uint256)": {
        "details": "Gives permission to `to` to transfer `tokenId` token to another account. The approval is cleared when the token is transferred. Only a single account can be approved at a time, so approving the zero address clears previous approvals. Requirements: - The caller must own the token or be an approved operator. - `tokenId` must exist. Emits an {Approval} event."
      },
      "balanceOf(address)": {
        "details": "Returns the number of tokens in `owner`'s account."
      },
      "burn(uint256)": {
        "details": "Burns `tokenId`. See {ERC721A-_burn}. Requirements: - The caller must own `tokenId` or be an approved operator."
      },
      "getApproved(uint256)": {
        "details": "Returns the account approved for `tokenId` token. Requirements: - `tokenId` must exist."
      },
      "isApprovedForAll(address,address)": {
        "details": "Returns if the `operator` is allowed to manage all of the assets of `owner`. See {setApprovalForAll}."
      },
      "name()": {
        "details": "Returns the token collection name."
      },
      "owner()": {
        "details": "Returns the address of the current owner."
      },
      "ownerOf(uint256)": {
        "details": "Returns the owner of the `tokenId` token. Requirements: - `tokenId` must exist."
      },
      "renounceOwnership()": {
        "details": "Leaves the contract without owner. It will not be possible to call `onlyOwner` functions. Can only be called by the current owner. NOTE: Renouncing ownership will leave the contract without an owner, thereby disabling any functionality that is only available to the owner."
      },
      "safeTransferFrom(address,address,uint256)": {
        "details": "Equivalent to `safeTransferFrom(from, to, tokenId, '')`."
      },
      "safeTransferFrom(address,address,uint256,bytes)": {
        "details": "Safely transfers `tokenId` token from `from` to `to`. Requirements: - `from` cannot be the zero address. - `to` cannot be the zero address. - `tokenId` token must exist and be owned by `from`. - If the caller is not `from`, it must be approved to move this token by either {approve} or {setApprovalForAll}. - If `to` refers to a smart contract, it must implement {IERC721Receiver-onERC721Received}, which is called upon a safe transfer. Emits a {Transfer} event."
      },
      "setApprovalForAll(address,bool)": {
        "details": "Approve or remove `operator` as an operator for the caller. Operators can call {transferFrom} or {safeTransferFrom} for any token owned by the caller. Requirements: - The `operator` cannot be the caller. Emits an {ApprovalForAll} event."
      },
      "supportsInterface(bytes4)": {
        "details": "Returns true if this contract implements the interface defined by `interfaceId`. See the corresponding [EIP section](https://eips.ethereum.org/EIPS/eip-165#how-interfaces-are-identified) to learn more about how these ids are created. This function call must use less than 30000 gas."
      },
      "symbol()": {
        "details": "Returns the token collection symbol."
      },
      "tokenURI(uint256)": {
        "details": "Returns the Uniform Resource Identifier (URI) for `tokenId` token."
      },
      "totalSupply()": {
        "details": "Returns the total number of tokens in existence. Burned tokens will reduce the count. To get the total number of tokens minted, please see {_totalMinted}."
      },
      "transferFrom(address,address,uint256)": {
        "details": "Transfers `tokenId` from `from` to `to`. Requirements: - `from` cannot be the zero address. - `to` cannot be the zero address. - `tokenId` token must be owned by `from`. - If the caller is not `from`, it must be approved to move this token by either {approve} or {setApprovalForAll}. Emits a {Transfer} event."
      },
      "transferOwnership(address)": {
        "details": "Transfers ownership of the contract to a new account (`newOwner`). Can only be called by the current owner."
      }
    },
    "version": 1
  },
  "userdoc": {
    "errors": {
      "ApprovalCallerNotOwnerNorApproved()": [
        {
          "notice": "The caller must own the token or be an approved operator."
        }
      ],
      "ApprovalQueryForNonexistentToken()": [
        {
          "notice": "The token does not exist."
        }
      ],
      "BalanceQueryForZeroAddress()": [
        {
          "notice": "Cannot query the balance for the zero address."
        }
      ],
      "MintERC2309QuantityExceedsLimit()": [
        {
          "notice": "The `quantity` minted with ERC2309 exceeds the safety limit."
        }
      ],
      "MintToZeroAddress()": [
        {
          "notice": "Cannot mint to the zero address."
        }
      ],
      "MintZeroQuantity()": [
        {
          "notice": "The quantity of tokens minted must be more than zero."
        }
      ],
      "OwnerQueryForNonexistentToken()": [
        {
          "notice": "The token does not exist."
        }
      ],
      "OwnershipNotInitializedForExtraData()": [
        {
          "notice": "The `extraData` cannot be set on an unintialized ownership slot."
        }
      ],
      "TransferCallerNotOwnerNorApproved()": [
        {
          "notice": "The caller must own the token or be an approved operator."
        }
      ],
      "TransferFromIncorrectOwner()": [
        {
          "notice": "The token must be owned by `from`."
        }
      ],
      "TransferToNonERC721ReceiverImplementer()": [
        {
          "notice": "Cannot safely transfer to a contract that does not implement the ERC721Receiver interface."
        }
      ],
      "TransferToZeroAddress()": [
        {
          "notice": "Cannot transfer to the zero address."
        }
      ],
      "URIQueryForNonexistentToken()": [
        {
          "notice": "The token does not exist."
        }
      ]
    },
    "kind": "user",
    "methods": {},
    "version": 1
  },
  "storageLayout": {
    "storage": [
      {
        "astId": 3675,
        "contract": "contracts/CreDrexKYCBadge.sol:CreDrexKYCBadge",
        "label": "_currentIndex",
        "offset": 0,
        "slot": "0",
        "type": "t_uint256"
      },
      {
        "astId": 3677,
        "contract": "contracts/CreDrexKYCBadge.sol:CreDrexKYCBadge",
        "label": "_burnCounter",
        "offset": 0,
        "slot": "1",
        "type": "t_uint256"
      },
      {
        "astId": 3679,
        "contract": "contracts/CreDrexKYCBadge.sol:CreDrexKYCBadge",
        "label": "_name",
        "offset": 0,
        "slot": "2",
        "type": "t_string_storage"
      },
      {
        "astId": 3681,
        "contract": "contracts/CreDrexKYCBadge.sol:CreDrexKYCBadge",
        "label": "_symbol",
        "offset": 0,
        "slot": "3",
        "type": "t_string_storage"
      },
      {
        "astId": 3685,
        "contract": "contracts/CreDrexKYCBadge.sol:CreDrexKYCBadge",
        "label": "_packedOwnerships",
        "offset": 0,
        "slot": "4",
        "type": "t_mapping(t_uint256,t_uint256)"
      },
      {
        "astId": 3689,
        "contract": "contracts/CreDrexKYCBadge.sol:CreDrexKYCBadge",
        "label": "_packedAddressData",
        "offset": 0,
        "slot": "5",
        "type": "t_mapping(t_address,t_uint256)"
      },
      {
        "astId": 3694,
        "contract": "contracts/CreDrexKYCBadge.sol:CreDrexKYCBadge",
        "label": "_tokenApprovals",
        "offset": 0,
        "slot": "6",
        "type": "t_mapping(t_uint256,t_struct(TokenApprovalRef)3607_storage)"
      },
      {
        "astId": 3700,
        "contract": "contracts/CreDrexKYCBadge.sol:CreDrexKYCBadge",
        "label": "_operatorApprovals",
        "offset": 0,
        "slot": "7",
        "type": "t_mapping(t_address,t_mapping(t_address,t_bool))"
      },
      {
        "astId": 7,
        "contract": "contracts/CreDrexKYCBadge.sol:CreDrexKYCBadge",
        "label": "_owner",
        "offset": 0,
        "slot": "8",
        "type": "t_address"
      },
      {
        "astId": 3219,
        "contract": "contracts/CreDrexKYCBadge.sol:CreDrexKYCBadge",
        "label": "signer",
        "offset": 0,
        "slot": "9",
        "type": "t_address"
      },
      {
        "astId": 3221,
        "contract": "contracts/CreDrexKYCBadge.sol:CreDrexKYCBadge",
        "label": "uri",
        "offset": 0,
        "slot": "10",
        "type": "t_string_storage"
      },
      {
        "astId": 3226,
        "contract": "contracts/CreDrexKYCBadge.sol:CreDrexKYCBadge",
        "label": "hashes",
        "offset": 0,
        "slot": "11",
        "type": "t_mapping(t_string_memory_ptr,t_array(t_bool)dyn_storage)"
      },
      {
        "astId": 3228,
        "contract": "contracts/CreDrexKYCBadge.sol:CreDrexKYCBadge",
        "label": "badgePerUserAmount",
        "offset": 0,
        "slot": "12",
        "type": "t_uint256"
      }
    ],
    "types": {
      "t_address": {
        "encoding": "inplace",
        "label": "address",
        "numberOfBytes": "20"
      },
      "t_array(t_bool)dyn_storage": {
        "base": "t_bool",
        "encoding": "dynamic_array",
        "label": "bool[]",
        "numberOfBytes": "32"
      },
      "t_bool": {
        "encoding": "inplace",
        "label": "bool",
        "numberOfBytes": "1"
      },
      "t_mapping(t_address,t_bool)": {
        "encoding": "mapping",
        "key": "t_address",
        "label": "mapping(address => bool)",
        "numberOfBytes": "32",
        "value": "t_bool"
      },
      "t_mapping(t_address,t_mapping(t_address,t_bool))": {
        "encoding": "mapping",
        "key": "t_address",
        "label": "mapping(address => mapping(address => bool))",
        "numberOfBytes": "32",
        "value": "t_mapping(t_address,t_bool)"
      },
      "t_mapping(t_address,t_uint256)": {
        "encoding": "mapping",
        "key": "t_address",
        "label": "mapping(address => uint256)",
        "numberOfBytes": "32",
        "value": "t_uint256"
      },
      "t_mapping(t_string_memory_ptr,t_array(t_bool)dyn_storage)": {
        "encoding": "mapping",
        "key": "t_string_memory_ptr",
        "label": "mapping(string => bool[])",
        "numberOfBytes": "32",
        "value": "t_array(t_bool)dyn_storage"
      },
      "t_mapping(t_uint256,t_struct(TokenApprovalRef)3607_storage)": {
        "encoding": "mapping",
        "key": "t_uint256",
        "label": "mapping(uint256 => struct ERC721A.TokenApprovalRef)",
        "numberOfBytes": "32",
        "value": "t_struct(TokenApprovalRef)3607_storage"
      },
      "t_mapping(t_uint256,t_uint256)": {
        "encoding": "mapping",
        "key": "t_uint256",
        "label": "mapping(uint256 => uint256)",
        "numberOfBytes": "32",
        "value": "t_uint256"
      },
      "t_string_memory_ptr": {
        "encoding": "bytes",
        "label": "string",
        "numberOfBytes": "32"
      },
      "t_string_storage": {
        "encoding": "bytes",
        "label": "string",
        "numberOfBytes": "32"
      },
      "t_struct(TokenApprovalRef)3607_storage": {
        "encoding": "inplace",
        "label": "struct ERC721A.TokenApprovalRef",
        "members": [
          {
            "astId": 3606,
            "contract": "contracts/CreDrexKYCBadge.sol:CreDrexKYCBadge",
            "label": "value",
            "offset": 0,
            "slot": "0",
            "type": "t_address"
          }
        ],
        "numberOfBytes": "32"
      },
      "t_uint256": {
        "encoding": "inplace",
        "label": "uint256",
        "numberOfBytes": "32"
      }
    }
  }
}